:020000040800F2
:10000000980B00201D0200082502000827020008A6
:1000100000000000000000000000000000000000E0
:10002000000000000000000000000000CB080008F5
:100030000000000000000000A3010008CD08000837
:100040002F0200082F0200082F0200082F020008CC
:100050002F0200082F0200082F0200082F020008BC
:100060002F0200082F0200082F0200082F020008AC
:100070002F0200082F0200082F0200082F0200089C
:100080002F0200082F0200082F0200082F0200088C
:100090002F0200082F020008111200082F0200088A
:1000A0002F0200082F0200080000000000000000DE
:1000B0000000000000000000000000000000000040
:1000C00000F002F800F042F80CA030C808382418FC
:1000D0002D18A246671EAB4654465D46AC4201D180
:1000E00000F034F87E460F3E0FCCB6460126334270
:1000F00000D0FB1AA246AB46334318473C30000001
:100100005C300000103A02D378C878C1FAD85207A0
:1001100001D330C830C101D504680C6070470000BD
:100120000023002400250026103A01D378C1FBD813
:10013000520700D330C100D50B6070471FB500983F
:10014000019900F08CF91FBD10B510BD00F0E1F968
:100150001146FFF7F3FF01F015FA00F0F9F903B4C7
:10016000FFF7F2FF03BC00F029FA0000084B196802
:100170000868203080F30988022080F31488BFF3D8
:100180006F8F3FBCAE4608BC04BC62B61847000087
:1001900084000020EFF3108072B6704780F310885F
:1001A0007047EFF309800E4B1A6820381060F0C0DA
:1001B00044464D4656465F46F0C008B572B602F05A
:1001C000F1F862B60CBC116808681030F0C8A0469F
:1001D000A946B246BB4680F309882038F0C81847C4
:1001E0008400002070B505460C46164602E00FCC90
:1001F0000FC5103E102EFAD2082E02D303CC03C531
:10020000083E042E07D301CC01C5361F03E0217838
:100210002970641C6D1C761EF9D270BD074880479A
:1002200007480047FEE7FEE7FEE7FEE7FEE7FEE7DA
:1002300004480549054A064B70470000F1080008CC
:10024000C100000898090020980B0020980A00209F
:10025000980A002070B5064600F0E4F805683046BC
:100260000B30C408E400B44201D8002070BD6868B7
:100270002A46002818D00168A14211D30B46214616
:1002800008318B4208D3436801194B6003681B1B7C
:100290000B605160046001E041685160001D70BD59
:1002A000024640680028E6D12146284600F0C2F800
:1002B0000028DCD170BD70B50446051F00F0B2F80F
:1002C0000068002C1AD0446801E020466468002CC5
:1002D00001D0AC42F9D301680A18AA4204D12A68B5
:1002E00005468918016000E0456028684119A1426F
:1002F00005D16168696021684018286070BD6C6034
:1003000070BD034610B50B439B070FD1042A0DD3D4
:1003100008C810C9121FA342F8D018BA21BA8842DF
:1003200001D9012010BD0020C04310BD002A03D018
:10033000D30703D0521C07E0002010BD03780C78CF
:10034000401C491C1B1B07D103780C78401C491C1E
:100350001B1B01D1921EF1D1184610BDF8B5042A1D
:100360002CD3830712D00B78491C0370401C521EFB
:1003700083070BD00B78491C0370401C521E830767
:1003800004D00B78491C0370401C521E8B079B0F36
:1003900005D0C91ADF002023DE1B08C90AE0FFF7D9
:1003A00021FFF8BD1D4608C9FD401C46B4402C4342
:1003B00010C0121F042AF5D2F308C91A521EF0D435
:1003C0000B78491C0370401C521EEAD40B78491C60
:1003D0000370401C012AE4D409780170F8BD01E0E3
:1003E00004C0091F0429FBD28B0701D50280801CA1
:1003F000C90700D00270704700290BD0C30702D094
:100400000270401C491E022904D3830702D50280D2
:10041000801C891EE3E70022EEE70022DFE7704739
:1004200070477047004870473C090020704770478C
:100430007047704738B504460A4600206946C046F2
:10044000C046002805D002462046009900F040F83A
:10045000012038BD10B5012000F054F810BDF8B5EA
:10046000C046C046054600200C461020C046064641
:10047000A819A0420DD9324669460020C046C046A0
:10048000070001D100F03EF80098A04200D00546D8
:10049000C419FFF7C7FFF61D07460560F008C00046
:1004A0004619284600F008F8B44204D031463868AE
:1004B000A21B00F00DF8F8BD0021016041608060D2
:1004C0007047102070470000004870473409002032
:1004D00010B50346406801E003464068002801D09B
:1004E0008842F9D31868C3188B4206D0CB1CD808B1
:1004F000C000001D411A521A0146081D0A60FFF78C
:10050000DAFE10BD10B500F031F800F029F810BD8A
:1005100070477546FFF7D8FFAE460500694653465B
:10052000C008C000854618B020B5FFF781FE60BC4A
:1005300000274908B6460026C0C5C0C5C0C5C0C50D
:10054000C0C5C0C5C0C5C0C5403D49008D46704747
:1005500010B50446C046C0462046FFF700FE10BD59
:1005600010B5002801D000F029F810BD10B5012801
:1005700005D0002103A000F027F8012010BD09A13B
:10058000F8E7000053494752544D454D3A204F7506
:1005900074206F662068656170206D656D6F72797B
:1005A000000000003A2048656170206D656D6F7233
:1005B0007920636F72727570746564000149182048
:1005C000ABBEFEE72600020070B505460C460A20C9
:1005D00000E06D1C00F012F8002D06D028780028ED
:1005E000F7D102E0641C00F009F8002C02D020785A
:1005F0000028F7D10A2000F001F870BD08B569465F
:1006000008700320ABBE08BD88B00021C9430B466B
:1006100007AA002002F020FA0128F6D10798C007A7
:10062000F3D0314D00223149286801F0F3FF012851
:10063000EBD12E48694606780E7044784C7080786D
:1006400008718007C70F8F700098059000F01AFF9F
:10065000264A04906946093A897C1378994207D062
:10066000501D447006708770117001F005F90DE09F
:100670001E49091F8A78012A05D14A78A24202D16F
:100680000978B14202D0059900F02CFE1849887C07
:10069000032825D11748032202620C224262164821
:1006A0000122C263144840300369DB07FCD01348C1
:1006B0000023C36002234361826172B6487C002834
:1006C0000DD00F4C60780421084360700A2001F0BF
:1006D000CBFD6078FB210840607000F043F962B602
:1006E00001F0C4FB9EE7000004000020750000201C
:1006F0009C010020007000404000024000100240B9
:1007000000800020F0B500231D469C461C460126B3
:10071000A6400E4211D067000326BE403343082C8A
:1007200004D2A7000F26BE40354306E0A7000F26DF
:10073000203FBE4067463E43B446641C102CE6D3BF
:100740008468D602F6178C430E40344384604468B4
:10075000D601F6178C430E40344344600168940080
:100760000F4EA40F744399431C4021430160C1689C
:100770009403A40F744399431C402143C1601107A3
:10078000084A090F5143026A0B46AA432B401A43F9
:100790000262426A63469A4319400A434262F0BDCC
:1007A000555555551111111170B5064615460C4693
:1007B000000701D500F0EFFCB00701D500F0D2F83A
:1007C000700704D516490020087000F0B9F8E0075A
:1007D00001D000F0E1F8A00701D500F0A5FB60070B
:1007E00001D500F0A9FB200701D500F0ACFBE00625
:1007F00001D500F0AAFBA80701D500F09BFB680714
:1008000001D500F09FFB280701D500F09DFBE8060D
:1008100001D500F09BFBF00701D000F0AFF870BDF0
:100820008000002000B5A838030000F0FBFC170D85
:100830000F1113151B1F211D24272A2D2F32353888
:100840003B4217193E404500E22000BDE92000BDB3
:10085000EA2000BDB52000BDB62000BDB32000BD1C
:10086000B42000BDB72000BDCC2000BDCD2000BD10
:10087000FF20843000BDFF208B3000BDFF2093306F
:1008800000BDFF20953000BD0C4800BD0B48801C0A
:1008900000BD8920800000BD0848001D00BD07483C
:1008A000401D00BD0548801D00BD6F2000BD7020AB
:1008B00000BD0248093000BD002000BD210200003B
:1008C00000F09AFE00F04CFFFCE7704710B5FFF710
:1008D00061FC044602F062F8002803D001200349BD
:1008E000000748602046FFF759FC10BD00ED00E00E
:1008F0000D48032101620C2141620C480022C263B1
:100900000121C163094840300369DB07FCD0084876
:1009100001600848C2600223436181614262016252
:100920000922C261416270470070004040000240ED
:10093000002002400010024010B500F0D7FA10BDB0
:1009400010B506480121C1710021417214210448EB
:10095000FFF763FD00F00CFC10BD000000800020DC
:100960009C01002010B5044CA07C032803D100F0AA
:1009700011FCE07CA07410BD9C01002010B505485E
:10098000817C032905D0817CC1740321817400F02E
:100990003BFC10BD9C010020F8B55D4E0025B573F1
:1009A000777C5C4C780701D575742570F80602D504
:1009B000802070742570207800282BD1F80729D06A
:1009C00008225549002000F089F953488560C18804
:1009D0008181C58100784006800F03D100F000F9C5
:1009E000002801D100F0CAFAB5734021012807D0D0
:1009F000022808D003280AD060207074032004E085
:100A00007174012001E071740220207002E048201E
:100A1000707425703F48007801283BD1B80739D45D
:100A2000707CC107C90F49420140C80632D43A4C14
:100A30000227A1893948027891420DD2A289A16882
:100A4000802000F07BF9E089A1894018E081A58130
:100A500030480A27057014E0A168304802788020E9
:100A600000F06CF9A1682D4800780818A060A189F1
:100A70002A480078081AA081E189284800780818D7
:100A8000E081E089E188884203D1082007432148BA
:100A9000057077741F480078022837D11C48407CC5
:100AA000C00733D01C4C4027A0891C4E31788842A7
:100AB0000AD2A289A168002000F010F9E089A1897A
:100AC0004018E081A5810EE0A1683278002000F096
:100AD00005F9A06831784018A060A089401AA0816B
:100AE000E0894018E081A08900280DD1482700F056
:100AF0002FFA032804D0682706480321017001E07B
:100B0000044805700248857301484774F8BD000029
:100B100000800020800000209C010020F42E0008AE
:100B200010B506484078092806D1012000F0DAFA0D
:100B3000002801D0032010BD002010BD9C01002022
:100B400038B5264C20784006800F012804D0207844
:100B50004006800F2CD03FE06078030000F062FB7D
:100B60000C3C070A123C3C3C3C3C181F223C00F069
:100B700083FA04E0E08801282ED100F069FA002809
:100B800028D129E0E088012826D100F06BFAF6E7A9
:100B9000002000F0A7FA00281ED0022038BD00F087
:100BA0008DFA01E000F094FA002815D0032038BD3A
:100BB0006078062810D1E17820796A4600F004FABE
:100BC000A060A068002807D0A189684600888142FB
:100BD00000D9A081012038BD002038BD9C01002033
:100BE00010B52948417800220B0000F01BFB0A06D3
:100BF0000C480E48142748304548C08802283ED18A
:100C000000F0DEF81FE0002000E0012000F002F913
:100C1000002811D133E00178002930D18178837C1C
:100C20004906490E022B2AD0184B197001230029BE
:100C300001D0837400E08274032010BD0078802806
:100C40001DD100F097F8002819D0012010BD0178BF
:100C5000802914D1C188012911D1817C002904D0B7
:100C6000012902D002290AD102E009490A8001E0E3
:100C7000054910318160E8E70078002801D00020A4
:100C800010BD00F0EFF8C3E79C01002000800020B9
:100C90007E0000200207120F05D005498A73000666
:100CA00002D54020487470478020087570470000C6
:100CB000008000200207120F0CD007498A7300063B
:100CC00002D5487CC00601E0087D8006002801DAD4
:100CD0000120704700207047008000200007064B6D
:100CE000800EC01804E00378521E0B7092B2491CAB
:100CF000002AF8D170470000208000200207120F60
:100D000005D005498A73000602D510204874704743
:100D100020200875704700000080002010B50446B0
:100D200000F00CF82007000F05D0210603D502497A
:100D300088730120487410BD008000200007064B16
:100D4000800EC01804E00B780370521E92B2491C4A
:100D5000002AF8D1704700002080002010B514212F
:100D60000248FFF75AFB00F0D9F910BD9C010020A2
:100D70007047000038B5114CE078012805D00228F2
:100D800007D003280AD0002038BD684600F016F9C5
:100D900008E0A078694600F007F903E0A07869460A
:100DA00000F048F9A060A0680028EDD0A18968464D
:100DB0000088814200D9A081012038BD9C0100201B
:100DC00038B5124C00202080114D2878C006C00E86
:100DD00005D0012817D0022811D0002038BD287C6A
:100DE000694600F0E1F8C079400601D50120208075
:100DF000687C002807D020880221084302E0287977
:100E0000FFF758FF2080AC60012038BD7E00002035
:100E10009C01002010B512490A78D206D20E02D0E9
:100E2000022A1BD107E04A88012A17D1002800D0E6
:100E30000120487410E04A88002A0FD10C7921075C
:100E40000CD00028204602D0FFF758FF04E0FFF73F
:100E500021FF2046FFF78CFF012010BD002010BDB0
:100E60009C01002070B5164CA578A07C012802D00A
:100E7000022823D10AE0002D16D0284600F08CF974
:100E800000281BD025740220A0740DE0002D0DD089
:100E9000207CA84208D0207C00F014F8284600F0FE
:100EA0007BF900280AD02574012070BD0020207431
:100EB0000120A074002000F005F8F5E7002070BDC7
:100EC0009C0100200848C179FD221140C171C179FF
:100ED000FB221140C171C279F7210A40C271427AE6
:100EE0000A404272704700000080002010B50A4896
:100EF0008168421511438160094C084A0621204649
:100F0000FFF700FC60690621084360610548012184
:100F100041700721C17210BD401002400100002045
:100F2000000C004800800020014900200860704744
:100F30004000002070470000014900200860704711
:100F40003C000020704770477047704770470000B2
:100F500010B5094900200A785206520E212A0AD1FA
:100F60000A79002A05D00A79012A02D009790229D2
:100F700001D1FFF7D5FD10BD9C01002010B5094936
:100F800000200A78D206D20E012A0AD10A79002A54
:100F900005D00A79012A02D00979022901D1FFF787
:100FA000CFFD10BD9C010020002801D0002070471B
:100FB0005B20088000487047F52D00081221018051
:100FC00000487047E32D00080923002804D00128B9
:100FD0000ED002281AD01DE0212902D0222919D1D1
:100FE00002E013801148704741201080104870477C
:100FF000212902D022290DD103E00C481380193099
:101000007047BC2010800A4841307047212903D026
:10101000222905D0002070470448138032307047E1
:10102000222010800148463870470000072E000833
:10103000C42C0008032806D28200044883581B7879
:101040000B8080587047002070470000140000207B
:1010500003490248886001207047000027000020F3
:101060009C0100200349024888600120704700006D
:10107000280000209C0100200E480179012905D19B
:10108000C178012902D1C188082903D0017900293A
:1010900002D007E0084909E0C178012902D1C188DE
:1010A000082901D0002070470349083181600120E0
:1010B000704700009C010020290000200248C078F1
:1010C00002494870012070479C0100202600002042
:1010D0000248807802498870012070479C010020F6
:1010E0002600002010B50B490A79002A05D1CA78DC
:1010F000022A02D1CA88012A01D0002010BD064A66
:10110000002804D0107800F085F9012010BD8A6015
:10111000FBE700009C0100202600002010488268A8
:10112000012109050A43826002690A4302610269DA
:101130008A4302610A49012040390863C8620949AB
:101140000020C872C871487207490868FF2212045B
:101150009043086001200549800508607047000041
:10116000401002400080002014E400E000E100E0B4
:10117000054801214170C17100214172034801609D
:101180000348016070470000008000203C00002000
:10119000400000207047704730B5012801D0002082
:1011A00030BD184801218173002282740821017426
:1011B0004023437441744174C57902242543C571A9
:1011C000847382740174437441744174C479042536
:1011D0002C43C47103248473827401744374417476
:1011E0004174C3790B43C37184734275C174802207
:1011F0000275102202750275427A0A43427201207A
:1012000030BD00000080002010B500F0ABF910BD2B
:1012100010B5034A907991781279FFF7C5FA10BD9D
:101220000080002030B47446641E2578641CAB42F4
:1012300000D21D46635D5B00E31830BC1847000018
:10124000F0B500231D469C461C460126A6400E42D2
:1012500011D067000326BE403343082C04D2A700F8
:101260000F26BE40354306E0A7000F26203FBE40B4
:1012700067463E43B446641C102CE6D38468D6020D
:10128000F6178C430E40344384604468D601F61749
:101290008C430E4034434460016894000F4EA40F09
:1012A000744399431C4021430160C1689403A40F17
:1012B000744399431C402143C1601107084A090F38
:1012C0005143026A0B46AA432B401A430262426A08
:1012D00063469A4319400A434262F0BD555555553D
:1012E0001111111173B569460C888D79201FA02842
:1012F00003D82946009800F0F1FA2046E038072884
:1013000003D82946009800F01BFB2046A538022888
:1013100003D82946009800F029FBA83C162C03D8D6
:101320002946009800F0C2FA7CBD000010B50549BE
:1013300003480860FFF712FDFFF7FEFA10BD00003A
:10134000006CDC0200000020FFB5164C81B00025C7
:10135000A57020781E461746002812D000F0F3FD35
:1013600021890125411A89B2A060FF2901D9FF21F5
:1013700001E0002905D0CBB23A460299019800F06D
:1013800049FE6078064309D0002D02D100F0DBFD54
:10139000A0603A460299019800F0DAFDA07805B005
:1013A000F0BD00005000002070B5044612214843F3
:1013B000FEF750FF0A4900234860194602460CE038
:1013C0000020D5182E78401CF607F60FC0B25B1C23
:1013D0002E701228F5D3491CC9B2A142F0D370BDBA
:1013E00050000020F3B500240F46254601262A466A
:1013F0000020009900F030F8002804D03046A840C2
:10140000384200D004436D1CEDB2122DEFD32046BC
:10141000FCBD000038B5694608700B4A0B490C4BFF
:10142000C40701D08A6100E08B610A4C850701D4B2
:10143000A26100E0A361400701D5202001E0012066
:101440004005886138BD000000040000000000482D
:10145000000000040004004802280ED208290CD223
:10146000122A0AD2FF2321335843054BC0182423E4
:10147000594340185100405A7047012070470000FE
:10148000F62E000831B5204C81B06078002801D0DC
:10149000A0782070207869468870019900F038F8AB
:1014A000694608808B79002B0BD03F214902884286
:1014B00007D16178012041406170A1784140A1705D
:1014C0001FE0617800291CD151252D028543684613
:1014D000427901790D4802D0002B06D011E06B460D
:1014E0001C789C70427001700BE02378002B08D0B0
:1014F0004378934205D10078884202D100206946A2
:10150000887000983CBD00006C0000206F00002037
:1015100003B569464979082910D26A461279122A18
:101520000CD202280AD2FF2321335843044BC0189F
:101530002423594340185100405A0CBD00200CBDD3
:10154000F62E000810B5054800F0EDFC044800F048
:10155000DBFC0248401F00F0E6FC10BD0A0000481A
:101560000A04004810B5054800F0DDFC044800F00E
:10157000CBFC0248401F00F0D6FC10BD0A0000481A
:101580000A0400481CB5FFF7D1FE002208210A20FA
:1015900000F068FF0F4C2060012000F051FF6060F8
:1015A0002146083101200191009000235A220AA10E
:1015B0000B4801F06DF921460C3103200191009098
:1015C0000023402207A1084801F062F900F0BCFEA8
:1015D000FEE70000040000204D617472697800008D
:1015E000C108000841505000090600080149800068
:1015F000085870476C01002010B50B4881684215EF
:101600001143816000F014F8FFF79CFF2021074888
:10161000FEF703FF054820212038FEF7FEFE0820D4
:10162000FFF7C2FE10BD0000401002406C01002018
:10163000F8B50024204600F0D9FC641CE4B2082C64
:10164000F8D300240A4E01252F04A0003058411C75
:1016500008D00207120F29469140000900013A46BE
:10166000FFF7EEFD641CE4B2122CEED3F8BD0000CF
:10167000AC2E00080020401CC0B26428FBD3704789
:10168000F3B519488E0080590D46002481B0411CE5
:1016900028D000F048FC144B012100222033900098
:1016A0001858471C08D007093F013F690007000F81
:1016B000C740F807C00F01D0002000E00846521CC8
:1016C0000443D2B24900122AE9D3284600F08EFC26
:1016D000002C01D0012100E000212846FFF7CAFFBD
:1016E00001988451FEBD00008C2E000810B5002426
:1016F00021461A48FFF7C4FF641CE4B2082CF7D354
:101700000024164821462030FFF7BAFF641CE4B2DB
:10171000082CF6D3114920222031881AFEF7F1FD5A
:10172000002801D0012010BD0C49002408462022C9
:101730006030FEF7E6FD002806D00849012408467F
:1017400020226030FEF74EFD0449234680310846D2
:1017500008222038FFF7F8FD10BD0000EC00002043
:10176000F0B58BB0FFF7C2FF3C4A0020114640396C
:10177000089084000B5914596340089C234300D0FF
:101780000123401CC0B20893082802D2002BF0D0DD
:1017900001E0002B22D00024A000304902900D5817
:1017A000403908586840059051D029462046FFF737
:1017B00019FE074600F05AF800281DD00026A64260
:1017C00016D03046FFF712FF01463046FFF70AFEFB
:1017D000384000F04BF8002839D109E000F0B3FBA5
:1017E0001F490A88821A1204120C34D0088032E091
:1017F000761CF6B2082EE2D301270026059838425F
:101800001CD06846007C3D4202D00221084301E022
:10181000FD2108406946087411490023891C0E7097
:101820004C7088700F481A46006800F070FE0E4831
:10183000012200231146006801F052F8761CF6B22E
:101840007F00122EDAD30549029840390D50641CEE
:10185000E4B2082CA0D308980BB0F0BD6C010020B6
:10186000440000200400002010000020411E084019
:1018700000D001207047000010B50A4C04202070F1
:1018800009490220087008480821801DFEF7C3FDA1
:101890000F21601CFEF7BFFD0348801E0021C170B0
:1018A000017110BD8C0100205E00002073B5022084
:1018B000094C002920700AD0684605782846FEF7B2
:1018C000B1FF60702846FEF7ADFF000A01E000207E
:1018D0006070A0707CBD00005E000020F3B568461B
:1018E000037801255807400F8540134ADC08042778
:1018F0001248A418002910D00221465C9E4204D050
:10190000002E08D0491C0829F7DB082913D11770CD
:10191000A07828430EE04354F7E70221465C9E423C
:1019200002D10023435402E0491C0829F6DB17705A
:10193000A078A843A070FCBD8C01002064000020AA
:1019400013B568460378084A0124E03B9C401078B0
:10195000002903D0072B05D8204302E0072B01D82C
:10196000A04310701CBD00006400002003B5684651
:101970000078A52810D0A62810D0A72810D00020C5
:10198000084A1388984206D010800323521D137012
:101990005070000A90700CBD8120F1E78220EFE7C3
:1019A0008320EDE75C000020F8B5134C0F46E66895
:1019B00005462068001D00F0C9FB681C07D1002FF8
:1019C00005D021680D48091D00F0F9FBF8BD20681D
:1019D000751945602168B54204D2A06B091D00F05D
:1019E000D6FBF8BD606B091D00F0D1FBA06A8542F3
:1019F000F7D2A562F8BD0000840000206402002038
:101A0000F8B5054600F0E8FB294CA068401CA06032
:101A10002068284F002803D06069002827D02CE0D8
:101A20002560A068012828D1002614207043C01921
:101A300000F09FFB761C052EF7D31E48643000F0A3
:101A400098FB1C48783000F094FB1A488C3000F06A
:101A500090FB1848A03000F08CFB1648B43000F022
:101A600088FB1448643060631430A06305E020688C
:101A7000E96AC06A884200D82560606A401C6062DA
:101A8000E86A2169884200D9206114214843C019BD
:101A9000291D00F094FB00F0ABFB6069002806D024
:101AA0002068E96AC06A884201D200F0D1FBF8BD23
:101AB00084000020B001002010B5026C0C46002A02
:101AC0000CD0C1688B18C36081688B4201D2194663
:101AD00001E00168C1602046FEF740FC10BDF8B58A
:101AE000856B174604460026026C002A11D0002F91
:101AF00019D0E068FEF732FCE168206C091AE16059
:101B00002268914202D2A168081AE060022F17D021
:101B100019E02068002816D1A06800F0DBFF064617
:101B20000020A0600FE06068FEF718FC216C606880
:101B300040186060A168884205D32068606002E0B8
:101B4000002D00D06D1E6D1CA5633046F8BD10B58C
:101B50000446006B00F05AFB204600F057FB10BD16
:101B60000F480E49420705D0C01DC0080C4AC000EE
:101B7000821A891A0B4A0023411809C20839C90878
:101B8000C900183A11604B600B600B1A0AC09360D1
:101B90000120C0075360D06070470000BC06000001
:101BA00078020020D00000200F4E104C3746A03F96
:101BB00011E000F011FBF068C568281D00F0C6FABE
:101BC000A068401EA0606068401E606000F010FBCE
:101BD0002846FFF7BCFF60680028EAD13868012872
:101BE000F9D900F035FBF6E7500200208400002010
:101BF000FFB581B00C9C9000236B001F1818C6081D
:101C00000A9DF600700701D072B6FEE72246203228
:101C100000290DD0002027180B5C20373B750B5C8A
:101C2000002B02D0401C0A28F5D30020507701E099
:101C300000201075052D00D30425E5620027676498
:101C4000201D256400F0A0FA2046183000F09CFA10
:101C500024610520401B6462A061A7644C200755E5
:101C60003046049A019900F0F1F820600B980028A2
:101C700000D0046005B0F0BD30B5114900E0114658
:101C80000A688242FBD34B685C18844203D14068E7
:101C900018184860084643681C18944209D1084C3B
:101CA000103C2468A24209D052689A1842600A681F
:101CB00012680260814200D0086030BD0460F9E71C
:101CC000D000002010B5044600F086FAA06B002872
:101CD00004D0002400F08CFA204610BD0124F9E75E
:101CE0000648416B0968002905D0416BC968C9687D
:101CF0004968816270470021C943FAE784000020E7
:101D000003480068401C72B600D0FEE7FEE7000002
:101D1000D8000020F8B5044600F05EFA25464035AC
:101D20000526AE57274624370BE0606A00280AD004
:101D3000384600F03FFF002801D000F0B5FA761ECB
:101D400076B2002EF1DC0027FF436F7100F050FAED
:101D500000F042FA0426AE572046103000900BE007
:101D6000206900280AD0009800F024FF002801D044
:101D700000F09AFA761E76B2002EF1DC2F7100F098
:101D800037FAF8BDF8B50546002700F003FB284EEA
:101D90003068002801D1FFF7E3FEF06805423FD12B
:101DA000002D3DD00835680708D06807400F08218E
:101DB000081A4519680701D072B6FEE7002D2FD02A
:101DC000706885422CD81A48103001460C6801E032
:101DD00020460C466168A94202D221680029F7D149
:101DE00031688C421CD00768216801606068083740
:101DF000411B102908D96019420701D072B6FEE7CD
:101E000041606560FFF738FF61687068401A706074
:101E1000B268904200D2B060F0680143002003C471
:101E200000F0FAFE780701D072B6FEE73846F8BD3A
:101E3000C000002004490868002803D00868426CEC
:101E4000521C4264086870478400002010B50124C9
:101E5000031F24061C601B1F1960191F024B0B6017
:101E6000143940380A6010BD011D000870B5082201
:101E70001E491F48FEF745FA002802D01C4C812558
:101E80001EE01B4803221B49801FFEF73AFA002878
:101E900002D0174CA41F12E0154803221649C01E99
:101EA000FEF72FFA002802D0114CE41E07E01022A2
:101EB00012491348FEF725FA002815D0104C822548
:101EC000002C11D00F4E0021C943306800F01AFCDD
:101ED0002146284600F0EAF80028F9D100231A46E6
:101EE0001946306800F013FB70BD0000310000207F
:101EF000640000202000002023000020DC000020DF
:101F00008C01002008000020020770B5120F01218B
:101F1000914005092D0101220C4612072846FFF7C2
:101F20008FF9AC6170BD020770B5120F01219140AD
:101F300005092D0101220C4612072846FFF780F9FA
:101F40002004A86170BD10B500F022FD80B210BD64
:101F5000F7B5254881B08278002496460678416816
:101F600039E0019AA0001558029A8446105845405D
:101F700000220120034693401D421DD00F78009798
:101F80007F0821D1019E6746F6591E4202D0009E6D
:101F9000064302E0009846087600F007C00F801C58
:101FA00008700126C0070FD00298C0595840029B04
:101FB000D8510120864607E00878430804D0C307BB
:101FC00002D1C007C00F0870521CD2B2491C122A9D
:101FD000CFD3641CE4B203988442C2D30248714652
:101FE00081700670FFBD00005000002010B5084948
:101FF00080000858411C09D00207120F01219140AE
:102000000009012200011204FFF71AF910BD0000B7
:102010008C2E0008FFB52448002282B0416802706F
:102020009E4642701446944635E0002001250E7805
:102030008540770828D07708734677451DD8F30781
:10204000DB0F0B70DB0702D001239C461CE0A700CE
:10205000039E0197F6590096029BAE43DF59009B01
:102060002F40114D3E43AF7873403B4300D00123D6
:10207000AB70039F019D7E5106E0F207D20FFB1A61
:102080005B001A430A700122401CC0B2491C12288E
:10209000CCD3641CE4B204988442C6D3024861469F
:1020A0000270417006B0F0BD5000002070B5204AAB
:1020B0000646927C0320022A01D0022070BD012432
:1020C000812E06D0822EF9D11A4D286800280BD017
:1020D00011E0194D286800280DD108221748FEF795
:1020E0003DF90822154915E0087802280CD003288C
:1020F00003D0042814D0012070BD03221048FEF73D
:102100002DF903220E4905E003220E48FEF726F9B9
:102110000C4903223046FEF701FE2C60002070BD02
:1021200010220948FEF71AF910220749F2E70000C9
:102130009C0100203C0000204000002031000020D5
:102140002300002020000020DC000020436882687B
:1021500001699A60836842685A604A68824201D184
:1021600082684A60002202610868401E08600868B0
:1021700070470146083100224160D243C16082604D
:10218000016100210160704700210161704730B595
:102190000B685A1C02D00246083202E0026904E0D1
:1021A0002246546825689D42FAD953684B6099606D
:1021B0008A60516008610168491C016030BD426855
:1021C0004A6093688B609368596091600861016808
:1021D000491C01607047000072B604480168491C40
:1021E0000160BFF34F8FBFF36F8F7047D80000209F
:1021F00005490868002804D0401E086000D162B676
:10220000704772B6FEE70000D800002070B50028C5
:102210001AD004460D4D083C6068E968084201D1B7
:1022200072B6FEE72268002A01D072B6FEE7884344
:10223000606000F0AFF86068696840186860204628
:10224000FFF71AFD00F0E8FC70BD0000C0000020A0
:102250000120044900074860BFF34F8FBFF36F8F21
:102260007047000000ED00E010B502000FD00948F3
:10227000006B002801D072B6FEE700F08BF8002159
:102280001046FFF791FB00F0C7FC002801D1FFF7D3
:10229000DFFF10BD8400002002490A6A0260C9689D
:1022A000416070478400002001490120C8617047E7
:1022B0008400002010B50C46002809D005490968A3
:1022C0001831FFF764FF01212046FFF76DFB10BDB9
:1022D00072B6FEE78400002070B504002FD0626C57
:1022E000002A0ED0206C884200D30146E06A884262
:1022F00025D0012A23D1124D2A68944203D172B607
:10230000FEE772B6FEE7E162A269002A02DB05225F
:10231000511AA16114220B4E504361698019814208
:102320000DD1201DFFF712FFE06A2969884200D90C
:102330002861142148438019211DFFF740FF70BD1B
:1023400084000020B00100201CB50E48002401903C
:10235000234640220CA100940D4800F099FA012870
:1023600003D0401C0CD172B6FEE772B600210548BE
:10237000C9432C38816201214161C46000F03EF8FC
:102380001CBD0000B000002049444C450000000086
:10239000A91B00080248016B491C0163704700003B
:1023A0008400002010B51348016B002902D00121E0
:1023B000C16110BD0021C16101690F4A02E000291D
:1023C00015D0491E14234B43D358002BF7D01423A8
:1023D0004B439A18536814465B6808345360A34211
:1023E00001D15B685360DA680260016110BD72B6AA
:1023F000FEE7000084000020B001002010B50C486A
:10240000016AFF22120411430162016A12021143A0
:1024100001620848002101618161074A4261072287
:10242000026106480160FDF7A1FE002010BD00001A
:1024300000ED00E000E000E07FBB0000D8000020DD
:1024400010B502460021012000F00CF8041E07D050
:102450000021816001600B460A46C16000F057F818
:10246000204610BD70B50E46050014D0002E14D0C5
:1024700070434830FFF786FC04000AD021464831FB
:102480002046002E0BD0016006640121C56300F0D8
:1024900008F8204670BD72B6FEE70020E9E700604C
:1024A000F2E770B50D46040025D0FFF795FE216CCC
:1024B000E06B484321684118A1600021A1632168B5
:1024C0006160E06B216C401E484321684118E16067
:1024D0000021C94320464030017141713038002D40
:1024E0000BD0FFF746FE20462430FFF742FEFFF7F1
:1024F0007FFE012070BD72B6FEE721690029F6D08B
:1025000000F058FB0028F2D0FFF7A2FEEFE7FFB57E
:10251000002683B01D46040003D00498002802D092
:1025200006E072B6FEE7206C002801D072B6FEE726
:102530000027022D04D1E06B012801D072B6FEE71E
:10254000FFF74AFEA16BE06B814207D3022D05D055
:102550000598002817D0002E18D01BE02A462046E8
:102560000499FFF7BCFA616A002903D020462430A1
:1025700000F020FB002801D0FFF76AFEFFF738FECD
:10258000012007B0F0BDFFF733FE22E06846FFF7F9
:1025900083FE0126FFF72CFEFFF7FCFEFFF71CFE73
:1025A0002046403004214156491C00D107710521C5
:1025B0004156491C00D14771FFF71AFE05A968462C
:1025C00000F038F9002806D02046FFF7A3FB00F002
:1025D00023FB0020D5E7FFF7FFFDA06BE16B8842EE
:1025E00010D1FFF705FE204610300599FFF762FE77
:1025F0002046FFF78FFB00F00FFB0028A0D1FFF76C
:1026000027FE9DE7FFF7F4FD2046FFF783FB00F070
:1026100003FB95E7F7B5002582B0040004D00398CA
:102620000026002802D006E072B6FEE7206C0028E3
:1026300001D072B6FEE7FFF7CFFDA76B002F15D0D4
:1026400020460399FFF738FA7F1EA7632069002808
:1026500007D02046103000F0ADFA002801D0FFF777
:10266000F7FDFFF7C5FD012005B0F0BD0498002877
:1026700002D0002D03D006E0FFF7BAFD27E0684640
:10268000FFF70AFE0125FFF7B3FDFFF783FEFFF713
:10269000A3FD2046403004214156491C00D106715B
:1026A00005214156491C00D14671FFF7A1FD04A93F
:1026B000684600F0BFF8002820460AD0FFF72AFB42
:1026C00000F0AAFA2046FFF7FDFA0028B3D0002058
:1026D000CAE7FFF7F7FA00280ED020462430049905
:1026E000FFF7E8FD2046FFF715FB00F095FA0028FC
:1026F000A1D1FFF7ADFD9EE72046FFF70BFB00F0F1
:102700008BFA98E7F3B5002683B0041E354605D052
:10271000206C0027002803D072B6FEE772B6FEE7F1
:10272000FFF75AFDA06B002817D0401EA063206859
:10273000002802D1FFF77EFBA0602069002807D0A7
:102740002046103000F036FA002801D0FFF780FD57
:10275000FFF74EFD012005B0F0BD0498002802D01F
:10276000002E07D00AE0002D01D072B6FEE7FFF779
:102770003FFD5CE06846FFF78FFD0126FFF738FD5F
:10278000FFF708FEFFF728FD2046403004214156A0
:10279000491C00D1077105214156491C00D14771E0
:1027A000FFF726FD04A9684600F044F800282046FB
:1027B00014D0FFF7AFFA00F02FFA2046FFF782FAA5
:1027C0000028ADD0002D32D0FFF706FD606A00284A
:1027D00028D0206B05210068091A24E0FFF772FA5F
:1027E000002819D02068002807D1FFF7F5FCA06861
:1027F00000F0A4F90546FFF7FBFC204624300499BD
:10280000FFF758FD2046FFF785FA00F005FA00288B
:1028100086D1FFF71DFD83E72046FFF77BFA00F026
:10282000FBF97DE70021A068FFF756FD9FE7002038
:1028300091E70000F8B50C46050012D0002C12D02C
:10284000FFF7CAFC114BDA686E682068911B471CC1
:102850000BD02F681B6A9F420CD096420AD80124E5
:1028600004E072B6FEE772B6FEE70024FFF7C0FC94
:102870002046F8BD884205D9401A20602846FFF757
:102880000BFDF2E700202060E9E700008400002053
:10289000FFB585B0164690000F9FFFF773FA05004D
:1028A0001AD05020FFF76EFA040012D025630021E1
:1028B0000E9803910197009002943246089B069966
:1028C0000598FFF795F92046FFF79AF8012009B01F
:1028D000F0BD2846FFF79AFC0020C043F7E7000050
:1028E000FFB5012681B01F460D46002814D00446CE
:1028F000FFF772FC002F01D0A06C386020464030FA
:102900000146007B02220A7303990B00FEF78AFC42
:10291000051806090F0D130072B6FEE7A16C2943D6
:1029200001E0A16C491CA1640AE0022801D0A56461
:1029300006E0002622E0A16C491C01D072B6FEE739
:1029400001281BD1201DFFF701FC0F4DE06A29690A
:10295000884200D92861142148430C494018211DA0
:10296000FFF72DFCA06A002801D072B6FEE7E06AEE
:102970002968C96A884201D9FFF76AFCFFF738FC69
:10298000304605B0F0BD000084000020B0010020FA
:102990000148C0687047000084000020F8B52C4C46
:1029A0000027206B002808D0A069401CA061E069C6
:1029B000002800D001273846F8BDE668761CE6609E
:1029C0000ED1606B0068002801D072B6FEE7606B24
:1029D000A16B6163A063206A401C2062FFF780F94D
:1029E000A06A86420AD3606B0068002810D0606B32
:1029F000C068C568686886420DD2A062206814214C
:102A0000C06A4843134908580128D0D90127CEE7A6
:102A10000020C043F1E7281DFFF798FBA86A0028B3
:102A200003D028461830FFF791FBE86A21698842F5
:102A300000D920611421484306494018291DFFF799
:102A4000BEFBE86A2168C96A8842CCD30127CAE77D
:102A500084000020B0010020FFB581B01E4615465D
:102A60000746FFF7B9FB1A4C20684030007B02286C
:102A70000ED02068816CB943816420680121403008
:102A80000173002E04D03046FEF78EFFFFF7E0FB07
:102A9000FFF7AEFBFFF7A0FB002D02D02068806C93
:102AA000286020684030007B022801D0002505E026
:102AB0002068816C029A914381640125206800217D
:102AC00040300173FFF794FB284605B0F0BD0000CD
:102AD0008400002070B500210446002828D0154D40
:102AE0002868844201D072B6FEE7606C002808D0E6
:102AF000401E6064236CE26A9A4219D0002802D01A
:102B000016E072B6FEE7201DFFF720FB206C0521C2
:102B1000E062081AA061E06A2969884200D9286148
:102B20001421484304494018211DFFF748FB0121A7
:102B3000084670BD84000020B001002070B5044636
:102B40000020002C2AD0194DE16A2A68D26A9142ED
:102B500025D2A069002804DB28680521C06A081A6C
:102B6000A061E06A1422124E5043616980198142CB
:102B700010D1201DFFF7EAFA2868C06AE0622969CF
:102B8000884200D92861142148438019211DFFF78C
:102B900016FB02E02868C06AE062012070BD216C6B
:102BA0002A68D26A9142F8D370BD000084000020E8
:102BB000B001002070B5C068C468002C0BD020465E
:102BC00018300646FFF7C2FA114D286B002804D0D2
:102BD000314610480FE072B6FEE7201DFFF7B6FA47
:102BE000E06A2969884200D92861142148430949CB
:102BF0008C394018211DFFF7E2FAE06A2968C96A9A
:102C0000884202D90120E86170BD002070BD00003B
:102C1000840000203C020020F8B5284C0025206BE1
:102C20002E46002808D0FFF7D7FA206B401E2063FD
:102C3000206B002802D03DE072B6FEE7A168204F6D
:102C400000291DD136E0F868C56828461830FFF71E
:102C50007DFA281DFFF77AFAE86A2169884200D9CF
:102C600020611421484316498C394018291DFFF76B
:102C7000A6FAE86A2168C96A884201D30120E061A6
:102C800038680028DFD1002D01D0FFF729F8A569A9
:102C9000002D09D00127FFF781FE002800D0E76151
:102CA0006D1EF8D10020A061E069002802D0012645
:102CB000FFF7CEFAFFF79CFA3046F8BD84000020FB
:102CC0003C02002005010906A101050719E029E7DA
:102CD000150025017501950881027508950181018E
:102CE00019002AFF00150026FF00750895068100CF
:102CF00005081901290515002501750195059102A1
:102D000095039101C005010902A10185010901A1F5
:102D10000005091500250119012905750195058191
:102D20000295038103050116018026FF7F09300902
:102D3000317510950281061581257F093875089532
:102D4000018106050C0A380295018106C0C0050CF8
:102D50000901A101850219002A3C021500263C0246
:102D6000950175108100C005010980A10185031935
:102D7000812983150025017501950381029505813F
:102D800001C005010906A1018504050719E029E72D
:102D900015002501750195088102190029671500A4
:102DA00025017501956881021987298B0990099180
:102DB00015002501750195078102750195018101B5
:102DC000C00601FF0901A101150026FF00092075B9
:102DD0000896FF01B1029540090181029540090161
:102DE0009102C012011001000000408888425A0080
:102DF000010102000109025B00030100A032090485
:102E0000000001030101000921100100012241001D
:102E100007058103400001090401000103010100CD
:102E200009211001000122BC0007058203400001B6
:102E3000090402000203000200092110010001221E
:102E4000220007058303400001070503034000013A
:102E5000040309041A0359006F0075007200200072
:102E600043006F006D00700061006E0079001C036C
:102E70004B006500790062006F0061007200640021
:102E80002000440045004D004F00000001000048B4
:102E900002000048040000480600004807000048FF
:102EA0000004004803040048050400480B000048E3
:102EB0000E0000480F0000480F0400480E040048B0
:102EC0000D0400480C0400480904004808040048A8
:102ED00005080048040800480308004802080048A4
:102EE0000108004800080048040C0048030000489E
:102EF00000000048400000000000260043002700BA
:102F0000250024002100000020001F001E004D00AD
:102F100000004E00000000003E004C000000410098
:102F200042002D002E002300220000003B003A004A
:102F300035004A0049004B0000000000E00051004D
:102F40000000650045003800000011000500000089
:102F500000000000000050004F005600E600000096
:102F60000000530000003700280000003600100069
:102F70001900000006001B001D0000005400550051
:102F800000000000E4002C000000000044003400B9
:102F90003F000B000A0000003D0000002900520025
:102FA00062006300E2000000A800590000000F006A
:102FB000310033000E000D000900E5000700160087
:102FC000040058005A005B0000000151AA005C0098
:102FD000E30040002A002F0030001C001700E10031
:102FE0003C0039002B0000005D005E000000015134
:102FF000A9005F0000001200000013000C00180080
:103000001500000008001A0014005700600061005D
:10301000000000000000000000000000AC00000004
:1030200000000000000000000000000000000000A0
:103030000000000000000000000000000000000090
:10304000B400000000000000000000000000A60026
:10305000000047004600480000000000000000009B
:1030600000000000AB0000000000000000000000B5
:103070000000000000000000000000000000000050
:103080000000000000000000000000000000000040
:103090000000000000000000000000000000000030
:1030A000000000000000000000000000AE00000072
:1030B000000000000000000000000000007E000092
:1030C0000000000000000000000000000000000000
:1030D00000000000000000000000000000000000F0
:1030E00000000000000000000000000000000000E0
:1030F00000000000000000000000000000000000D0
:1031000000000000000000000000000000000000BF
:1031100000000000000000000000000000000000AF
:10312000000000000000000000000000000000009F
:1031300000000000000000005831000800000020DE
:10314000DC0000000401000834320008DC0000202C
:10315000BC0A000020010008006CDC020000000036
:10316000000000000000000000000000502E0008D9
:10317000542E00086E2E0008000000000000000021
:10318000010000000000000000000000000000003E
:10319000000000000000000000000000000000002F
:1031A000000000000000000000000000000000001F
:1031B000000000000000000000000000000000000F
:1031C00000000000000000000000000000000000FF
:1031D00000000000000000000000000000000000EF
:1031E00000000000000000000000000000000000DF
:1031F00000000000000000000000000000000000CF
:1032000000000000000000000000000000000000BE
:1032100000000000000000000000000000000000AE
:10322000000000000000000000000000000000009E
:04323000AAAAAAAAF2
:04000005080000C12E
:00000001FF
